{
  "contractName": "PayEth",
  "abi": [
    {
      "inputs": [],
      "stateMutability": "nonpayable",
      "type": "constructor"
    },
    {
      "inputs": [],
      "name": "payer",
      "outputs": [
        {
          "internalType": "address payable",
          "name": "",
          "type": "address"
        }
      ],
      "stateMutability": "view",
      "type": "function"
    },
    {
      "inputs": [],
      "name": "payeth",
      "outputs": [],
      "stateMutability": "payable",
      "type": "function"
    }
  ],
  "bytecode": "0x608060405234801561001057600080fd5b503373ffffffffffffffffffffffffffffffffffffffff1660008054906101000a90505050610362806100446000396000f3fe6080604052600436106100295760003560e01c8063123119cd1461002e578063e2217d5c14610059575b600080fd5b34801561003a57600080fd5b50610043610063565b6040516100509190610202565b60405180910390f35b610061610087565b005b60008054906101000a900473ffffffffffffffffffffffffffffffffffffffff1681565b600034116100ca576040517f08c379a00000000000000000000000000000000000000000000000000000000081526004016100c1906102a0565b60405180910390fd5b60008054906101000a900473ffffffffffffffffffffffffffffffffffffffff1673ffffffffffffffffffffffffffffffffffffffff163373ffffffffffffffffffffffffffffffffffffffff1614610158576040517f08c379a000000000000000000000000000000000000000000000000000000000815260040161014f9061030c565b60405180910390fd5b60008054906101000a900473ffffffffffffffffffffffffffffffffffffffff1673ffffffffffffffffffffffffffffffffffffffff166108fc349081150290604051600060405180830381858888f193505050501580156101be573d6000803e3d6000fd5b50565b600073ffffffffffffffffffffffffffffffffffffffff82169050919050565b60006101ec826101c1565b9050919050565b6101fc816101e1565b82525050565b600060208201905061021760008301846101f3565b92915050565b600082825260208201905092915050565b7f596f75206e6565642061207369676e69666963616e7420616d6f756e74206f6660008201527f2045746800000000000000000000000000000000000000000000000000000000602082015250565b600061028a60248361021d565b91506102958261022e565b604082019050919050565b600060208201905081810360008301526102b98161027d565b9050919050565b7f596f75206e6565642061207369676e69666963616e7420616464726573730000600082015250565b60006102f6601e8361021d565b9150610301826102c0565b602082019050919050565b60006020820190508181036000830152610325816102e9565b905091905056fea2646970667358221220549b7ffbc3a491c5aa9d3a14a541837d1162a50f6b62c97ec2e9c7b68b8d747764736f6c63430008110033",
  "immutableReferences": {},
  "source": "// SPDX-License-Identifier: MIT\npragma solidity >=0.4.22 <0.9.0;\n\ncontract PayEth {\n  address payable public payer;\n\n  constructor() {\n    payer == msg.sender;\n  }\n\n  function payeth() payable public {\n    require(msg.value > 0, \"You need a significant amount of Eth\");\n    require(msg.sender == payer, \"You need a significant address\");\n\n    payer.transfer(msg.value);\n  }\n  \n}\n",
  "sourcePath": "/home/nyambura00/Desktop/Solidity Devt/Metacrafting/payeth/contracts/PayEth.sol",
  "compiler": {
    "name": "solc",
    "version": "0.8.17+commit.8df45f5f.Emscripten.clang"
  },
  "schemaVersion": "3.4.10",
  "updatedAt": "2023-01-25T08:37:51.819Z",
  "devdoc": {
    "kind": "dev",
    "methods": {},
    "version": 1
  },
  "userdoc": {
    "kind": "user",
    "methods": {},
    "version": 1
  }
}